{
  "contractName": "FlashToken",
  "abi": [
    {
      "inputs": [
        {
          "internalType": "address",
          "name": "initialHolder",
          "type": "address"
        }
      ],
      "stateMutability": "nonpayable",
      "type": "constructor"
    },
    {
      "anonymous": false,
      "inputs": [
        {
          "indexed": true,
          "internalType": "address",
          "name": "owner",
          "type": "address"
        },
        {
          "indexed": true,
          "internalType": "address",
          "name": "spender",
          "type": "address"
        },
        {
          "indexed": false,
          "internalType": "uint256",
          "name": "value",
          "type": "uint256"
        }
      ],
      "name": "Approval",
      "type": "event"
    },
    {
      "anonymous": false,
      "inputs": [
        {
          "indexed": true,
          "internalType": "address",
          "name": "from",
          "type": "address"
        },
        {
          "indexed": true,
          "internalType": "address",
          "name": "to",
          "type": "address"
        },
        {
          "indexed": false,
          "internalType": "uint256",
          "name": "value",
          "type": "uint256"
        }
      ],
      "name": "Transfer",
      "type": "event"
    },
    {
      "inputs": [
        {
          "internalType": "address",
          "name": "owner",
          "type": "address"
        },
        {
          "internalType": "address",
          "name": "spender",
          "type": "address"
        }
      ],
      "name": "allowance",
      "outputs": [
        {
          "internalType": "uint256",
          "name": "",
          "type": "uint256"
        }
      ],
      "stateMutability": "view",
      "type": "function"
    },
    {
      "inputs": [
        {
          "internalType": "address",
          "name": "spender",
          "type": "address"
        },
        {
          "internalType": "uint256",
          "name": "amount",
          "type": "uint256"
        }
      ],
      "name": "approve",
      "outputs": [
        {
          "internalType": "bool",
          "name": "",
          "type": "bool"
        }
      ],
      "stateMutability": "nonpayable",
      "type": "function"
    },
    {
      "inputs": [
        {
          "internalType": "address",
          "name": "account",
          "type": "address"
        }
      ],
      "name": "balanceOf",
      "outputs": [
        {
          "internalType": "uint256",
          "name": "",
          "type": "uint256"
        }
      ],
      "stateMutability": "view",
      "type": "function"
    },
    {
      "inputs": [],
      "name": "decimals",
      "outputs": [
        {
          "internalType": "uint8",
          "name": "",
          "type": "uint8"
        }
      ],
      "stateMutability": "view",
      "type": "function"
    },
    {
      "inputs": [
        {
          "internalType": "address",
          "name": "receiver",
          "type": "address"
        },
        {
          "internalType": "uint256",
          "name": "amount",
          "type": "uint256"
        },
        {
          "internalType": "bytes",
          "name": "params",
          "type": "bytes"
        }
      ],
      "name": "flashLoan",
      "outputs": [],
      "stateMutability": "nonpayable",
      "type": "function"
    },
    {
      "inputs": [],
      "name": "name",
      "outputs": [
        {
          "internalType": "string",
          "name": "",
          "type": "string"
        }
      ],
      "stateMutability": "view",
      "type": "function"
    },
    {
      "inputs": [],
      "name": "symbol",
      "outputs": [
        {
          "internalType": "string",
          "name": "",
          "type": "string"
        }
      ],
      "stateMutability": "view",
      "type": "function"
    },
    {
      "inputs": [],
      "name": "totalSupply",
      "outputs": [
        {
          "internalType": "uint256",
          "name": "",
          "type": "uint256"
        }
      ],
      "stateMutability": "view",
      "type": "function"
    },
    {
      "inputs": [
        {
          "internalType": "address",
          "name": "recipient",
          "type": "address"
        },
        {
          "internalType": "uint256",
          "name": "amount",
          "type": "uint256"
        }
      ],
      "name": "transfer",
      "outputs": [
        {
          "internalType": "bool",
          "name": "",
          "type": "bool"
        }
      ],
      "stateMutability": "nonpayable",
      "type": "function"
    },
    {
      "inputs": [
        {
          "internalType": "address",
          "name": "sender",
          "type": "address"
        },
        {
          "internalType": "address",
          "name": "recipient",
          "type": "address"
        },
        {
          "internalType": "uint256",
          "name": "amount",
          "type": "uint256"
        }
      ],
      "name": "transferFrom",
      "outputs": [
        {
          "internalType": "bool",
          "name": "",
          "type": "bool"
        }
      ],
      "stateMutability": "nonpayable",
      "type": "function"
    },
    {
      "stateMutability": "payable",
      "type": "receive"
    }
  ],
  "bytecode": "0x60806040526040518060400160405280600b81526020017f466c61736820546f6b656e0000000000000000000000000000000000000000008152506000908051906020019062000051929190620001d2565b506040518060400160405280600581526020017f464c415348000000000000000000000000000000000000000000000000000000815250600190805190602001906200009f929190620001d2565b506012600260006101000a81548160ff021916908360ff1602179055506b019d971e4fe8401e74000000600355348015620000d957600080fd5b50d38015620000e757600080fd5b50d28015620000f557600080fd5b5060405162001be438038062001be483398181016040528101906200011b9190620002a6565b600354600460008373ffffffffffffffffffffffffffffffffffffffff1673ffffffffffffffffffffffffffffffffffffffff168152602001908152602001600020819055508073ffffffffffffffffffffffffffffffffffffffff16600073ffffffffffffffffffffffffffffffffffffffff167fddf252ad1be2c89b69c2b068fc378daa952ba7f163c4a11628f55a4df523b3ef600354604051620001c39190620002e3565b60405180910390a350620003de565b828054620001e0906200035f565b90600052602060002090601f01602090048101928262000204576000855562000250565b82601f106200021f57805160ff191683800117855562000250565b8280016001018555821562000250579182015b828111156200024f57825182559160200191906001019062000232565b5b5090506200025f919062000263565b5090565b5b808211156200027e57600081600090555060010162000264565b5090565b6000815190506200029381620003c4565b6200029e8162000300565b905092915050565b600060208284031215620002b957600080fd5b6000620002c98482850162000282565b91505092915050565b620002dd8162000355565b82525050565b6000602082019050620002fa6000830184620002d2565b92915050565b60006200030d8262000314565b9050919050565b600073ffffffffffffffffffffffffffffffffffffffff82169050919050565b600074ffffffffffffffffffffffffffffffffffffffffff82169050919050565b6000819050919050565b600060028204905060018216806200037857607f821691505b602082108114156200038f576200038e62000395565b5b50919050565b7f4e487b7100000000000000000000000000000000000000000000000000000000600052602260045260246000fd5b620003cf8162000334565b8114620003db57600080fd5b50565b6117f680620003ee6000396000f3fe6080604052600436106100955760003560e01c806370a082311161005957806370a082311461021e57806395d89b4114610275578063a9059cbb146102ba578063dd62ed3e14610311578063e0232b42146103685761009c565b806306fdde03146100a1578063095ea7b3146100e657806318160ddd1461013d57806323b872dd14610182578063313ce567146101d95761009c565b3661009c57005b600080fd5b3480156100ad57600080fd5b50d380156100ba57600080fd5b50d280156100c757600080fd5b506100d06103ab565b6040516100dd9190611339565b60405180910390f35b3480156100f257600080fd5b50d380156100ff57600080fd5b50d2801561010c57600080fd5b5061012760048036038101906101229190610e51565b610439565b604051610134919061131e565b60405180910390f35b34801561014957600080fd5b50d3801561015657600080fd5b50d2801561016357600080fd5b5061016c610450565b604051610179919061147b565b60405180910390f35b34801561018e57600080fd5b50d3801561019b57600080fd5b50d280156101a857600080fd5b506101c360048036038101906101be9190610e02565b61045a565b6040516101d0919061131e565b60405180910390f35b3480156101e557600080fd5b50d380156101f257600080fd5b50d280156101ff57600080fd5b50610208610504565b6040516102159190611496565b60405180910390f35b34801561022a57600080fd5b50d3801561023757600080fd5b50d2801561024457600080fd5b5061025f600480360381019061025a9190610d9d565b610517565b60405161026c919061147b565b60405180910390f35b34801561028157600080fd5b50d3801561028e57600080fd5b50d2801561029b57600080fd5b506102a4610560565b6040516102b19190611339565b60405180910390f35b3480156102c657600080fd5b50d380156102d357600080fd5b50d280156102e057600080fd5b506102fb60048036038101906102f69190610e51565b6105ee565b604051610308919061131e565b60405180910390f35b34801561031d57600080fd5b50d3801561032a57600080fd5b50d2801561033757600080fd5b50610352600480360381019061034d9190610dc6565b610605565b60405161035f919061147b565b60405180910390f35b34801561037457600080fd5b50d3801561038157600080fd5b50d2801561038e57600080fd5b506103a960048036038101906103a49190610e8d565b61068c565b005b600080546103b8906116ab565b80601f01602080910402602001604051908101604052809291908181526020018280546103e4906116ab565b80156104315780601f1061040657610100808354040283529160200191610431565b820191906000526020600020905b81548152906001019060200180831161041457829003601f168201915b505050505081565b60006104463384846108c6565b6001905092915050565b6000600354905090565b6000610467848484610a91565b6104f9843384600560008973ffffffffffffffffffffffffffffffffffffffff1673ffffffffffffffffffffffffffffffffffffffff16815260200190815260200160002060003373ffffffffffffffffffffffffffffffffffffffff1673ffffffffffffffffffffffffffffffffffffffff168152602001908152602001600020546104f491906115bf565b6108c6565b600190509392505050565b600260009054906101000a900460ff1681565b6000600460008373ffffffffffffffffffffffffffffffffffffffff1673ffffffffffffffffffffffffffffffffffffffff168152602001908152602001600020549050919050565b6001805461056d906116ab565b80601f0160208091040260200160405190810160405280929190818152602001828054610599906116ab565b80156105e65780601f106105bb576101008083540402835291602001916105e6565b820191906000526020600020905b8154815290600101906020018083116105c957829003601f168201915b505050505081565b60006105fb338484610a91565b6001905092915050565b6000600560008473ffffffffffffffffffffffffffffffffffffffff1673ffffffffffffffffffffffffffffffffffffffff16815260200190815260200160002060008373ffffffffffffffffffffffffffffffffffffffff1673ffffffffffffffffffffffffffffffffffffffff16815260200190815260200160002054905092915050565b6311e1a30083146106d2576040517f08c379a00000000000000000000000000000000000000000000000000000000081526004016106c99061141b565b60405180910390fd5b82471015610715576040517f08c379a000000000000000000000000000000000000000000000000000000000815260040161070c9061145b565b60405180910390fd5b60006127106009856107279190611565565b6107319190611534565b90506000818561074191906114de565b90506000854761075191906115bf565b90508673ffffffffffffffffffffffffffffffffffffffff166108fc879081150290604051600060405180830381858888f19350505050158015610799573d6000803e3d6000fd5b508673ffffffffffffffffffffffffffffffffffffffff16631b11d0ff60008886338a8a6040518763ffffffff1660e01b81526004016107de969594939291906112c2565b602060405180830381600087803b1580156107f857600080fd5b505af115801561080c573d6000803e3d6000fd5b505050506040513d601f19601f820116820180604052508101906108309190610ef9565b61086f576040517f08c379a00000000000000000000000000000000000000000000000000000000081526004016108669061137b565b60405180910390fd5b818161087b91906114de565b4710156108bd576040517f08c379a00000000000000000000000000000000000000000000000000000000081526004016108b4906113fb565b60405180910390fd5b50505050505050565b600073ffffffffffffffffffffffffffffffffffffffff168373ffffffffffffffffffffffffffffffffffffffff161415610936576040517f08c379a000000000000000000000000000000000000000000000000000000000815260040161092d906113db565b60405180910390fd5b600073ffffffffffffffffffffffffffffffffffffffff168273ffffffffffffffffffffffffffffffffffffffff1614156109a6576040517f08c379a000000000000000000000000000000000000000000000000000000000815260040161099d9061139b565b60405180910390fd5b80600560008573ffffffffffffffffffffffffffffffffffffffff1673ffffffffffffffffffffffffffffffffffffffff16815260200190815260200160002060008473ffffffffffffffffffffffffffffffffffffffff1673ffffffffffffffffffffffffffffffffffffffff168152602001908152602001600020819055508173ffffffffffffffffffffffffffffffffffffffff168373ffffffffffffffffffffffffffffffffffffffff167f8c5be1e5ebec7d5bd14f71427d1e84f3dd0314c0f7b2291e5b200ac8c7c3b92583604051610a84919061147b565b60405180910390a3505050565b600073ffffffffffffffffffffffffffffffffffffffff168373ffffffffffffffffffffffffffffffffffffffff161415610b01576040517f08c379a0000000000000000000000000000000000000000000000000000000008152600401610af8906113bb565b60405180910390fd5b600073ffffffffffffffffffffffffffffffffffffffff168273ffffffffffffffffffffffffffffffffffffffff161415610b71576040517f08c379a0000000000000000000000000000000000000000000000000000000008152600401610b689061135b565b60405180910390fd5b80600460008573ffffffffffffffffffffffffffffffffffffffff1673ffffffffffffffffffffffffffffffffffffffff168152602001908152602001600020541015610bf3576040517f08c379a0000000000000000000000000000000000000000000000000000000008152600401610bea9061143b565b60405180910390fd5b80600460008573ffffffffffffffffffffffffffffffffffffffff1673ffffffffffffffffffffffffffffffffffffffff1681526020019081526020016000206000828254610c4291906115bf565b9250508190555080600460008473ffffffffffffffffffffffffffffffffffffffff1673ffffffffffffffffffffffffffffffffffffffff1681526020019081526020016000206000828254610c9891906114de565b925050819055508173ffffffffffffffffffffffffffffffffffffffff168373ffffffffffffffffffffffffffffffffffffffff167fddf252ad1be2c89b69c2b068fc378daa952ba7f163c4a11628f55a4df523b3ef83604051610cfc919061147b565b60405180910390a3505050565b600081359050610d188161177b565b610d21816115f3565b905092915050565b600081519050610d3881611792565b92915050565b60008083601f840112610d5057600080fd5b8235905067ffffffffffffffff811115610d6957600080fd5b602083019150836001820283011115610d8157600080fd5b9250929050565b600081359050610d97816117a9565b92915050565b600060208284031215610daf57600080fd5b6000610dbd84828501610d09565b91505092915050565b60008060408385031215610dd957600080fd5b6000610de785828601610d09565b9250506020610df885828601610d09565b9150509250929050565b600080600060608486031215610e1757600080fd5b6000610e2586828701610d09565b9350506020610e3686828701610d09565b9250506040610e4786828701610d88565b9150509250925092565b60008060408385031215610e6457600080fd5b6000610e7285828601610d09565b9250506020610e8385828601610d88565b9150509250929050565b60008060008060608587031215610ea357600080fd5b6000610eb187828801610d09565b9450506020610ec287828801610d88565b935050604085013567ffffffffffffffff811115610edf57600080fd5b610eeb87828801610d3e565b925092505092959194509250565b600060208284031215610f0b57600080fd5b6000610f1984828501610d29565b91505092915050565b610f2b816115f3565b82525050565b610f3a81611605565b82525050565b6000610f4c83856114bc565b9350610f59838584611669565b610f628361176a565b840190509392505050565b6000610f78826114b1565b610f8281856114cd565b9350610f92818560208601611678565b610f9b8161176a565b840191505092915050565b6000610fb36023836114cd565b91507f54524332303a207472616e7366657220746f20746865207a65726f206164647260008301527f65737300000000000000000000000000000000000000000000000000000000006020830152604082019050919050565b6000611019601b836114cd565b91507f466c617368206c6f616e20657865637574696f6e206661696c656400000000006000830152602082019050919050565b60006110596022836114cd565b91507f54524332303a20617070726f766520746f20746865207a65726f20616464726560008301527f73730000000000000000000000000000000000000000000000000000000000006020830152604082019050919050565b60006110bf6025836114cd565b91507f54524332303a207472616e736665722066726f6d20746865207a65726f20616460008301527f64726573730000000000000000000000000000000000000000000000000000006020830152604082019050919050565b60006111256024836114cd565b91507f54524332303a20617070726f76652066726f6d20746865207a65726f2061646460008301527f72657373000000000000000000000000000000000000000000000000000000006020830152604082019050919050565b600061118b6010836114cd565b91507f52657061796d656e74206661696c6564000000000000000000000000000000006000830152602082019050919050565b60006111cb6017836114cd565b91507f4f6e6c79203330302054525820666c617368206c6f616e0000000000000000006000830152602082019050919050565b600061120b6026836114cd565b91507f54524332303a207472616e7366657220616d6f756e742065786365656473206260008301527f616c616e636500000000000000000000000000000000000000000000000000006020830152604082019050919050565b6000611271601d836114cd565b91507f436f6e74726163742068617320696e73756666696369656e74205452580000006000830152602082019050919050565b6112ad81611652565b82525050565b6112bc8161165c565b82525050565b600060a0820190506112d76000830189610f22565b6112e460208301886112a4565b6112f160408301876112a4565b6112fe6060830186610f22565b8181036080830152611311818486610f40565b9050979650505050505050565b60006020820190506113336000830184610f31565b92915050565b600060208201905081810360008301526113538184610f6d565b905092915050565b6000602082019050818103600083015261137481610fa6565b9050919050565b600060208201905081810360008301526113948161100c565b9050919050565b600060208201905081810360008301526113b48161104c565b9050919050565b600060208201905081810360008301526113d4816110b2565b9050919050565b600060208201905081810360008301526113f481611118565b9050919050565b600060208201905081810360008301526114148161117e565b9050919050565b60006020820190508181036000830152611434816111be565b9050919050565b60006020820190508181036000830152611454816111fe565b9050919050565b6000602082019050818103600083015261147481611264565b9050919050565b600060208201905061149060008301846112a4565b92915050565b60006020820190506114ab60008301846112b3565b92915050565b600081519050919050565b600082825260208201905092915050565b600082825260208201905092915050565b60006114e982611652565b91506114f483611652565b9250827fffffffffffffffffffffffffffffffffffffffffffffffffffffffffffffffff03821115611529576115286116dd565b5b828201905092915050565b600061153f82611652565b915061154a83611652565b92508261155a5761155961170c565b5b828204905092915050565b600061157082611652565b915061157b83611652565b9250817fffffffffffffffffffffffffffffffffffffffffffffffffffffffffffffffff04831182151516156115b4576115b36116dd565b5b828202905092915050565b60006115ca82611652565b91506115d583611652565b9250828210156115e8576115e76116dd565b5b828203905092915050565b60006115fe82611611565b9050919050565b60008115159050919050565b600073ffffffffffffffffffffffffffffffffffffffff82169050919050565b600074ffffffffffffffffffffffffffffffffffffffffff82169050919050565b6000819050919050565b600060ff82169050919050565b82818337600083830152505050565b60005b8381101561169657808201518184015260208101905061167b565b838111156116a5576000848401525b50505050565b600060028204905060018216806116c357607f821691505b602082108114156116d7576116d661173b565b5b50919050565b7f4e487b7100000000000000000000000000000000000000000000000000000000600052601160045260246000fd5b7f4e487b7100000000000000000000000000000000000000000000000000000000600052601260045260246000fd5b7f4e487b7100000000000000000000000000000000000000000000000000000000600052602260045260246000fd5b6000601f19601f8301169050919050565b61178481611631565b811461178f57600080fd5b50565b61179b81611605565b81146117a657600080fd5b50565b6117b281611652565b81146117bd57600080fd5b5056fea2646970667358221220037ae7f2d66bd020a971f94d11aa2b25123fff585e71ddf3a7c33f49a6fa781f64736f6c63430008000033",
  "source": "// SPDX-License-Identifier: MIT\npragma solidity ^0.8.0;\n\ninterface TRC20 {\n    function totalSupply() external view returns (uint256);\n    function balanceOf(address account) external view returns (uint256);\n    function transfer(address recipient, uint256 amount) external returns (bool);\n    function allowance(address owner, address spender) external view returns (uint256);\n    function approve(address spender, uint256 amount) external returns (bool);\n    function transferFrom(address sender, address recipient, uint256 amount) external returns (bool);\n    event Transfer(address indexed from, address indexed to, uint256 value);\n    event Approval(address indexed owner, address indexed spender, uint256 value);\n}\n\ninterface IFlashLoanReceiver {\n    function executeOperation(address asset, uint256 amount, uint256 premium, address initiator, bytes calldata params) external returns (bool);\n}\n\ncontract FlashToken is TRC20 {\n    string public name = \"Flash Token\";\n    string public symbol = \"FLASH\";\n    uint8 public decimals = 18;\n    uint256 private _totalSupply = 500000000 * 10**18;\n\n    mapping(address => uint256) private _balances;\n    mapping(address => mapping(address => uint256)) private _allowances;\n\n    constructor(address initialHolder) {\n        _balances[initialHolder] = _totalSupply;\n        emit Transfer(address(0), initialHolder, _totalSupply);\n    }\n\n    function totalSupply() external view override returns (uint256) {\n        return _totalSupply;\n    }\n\n    function balanceOf(address account) external view override returns (uint256) {\n        return _balances[account];\n    }\n\n    function transfer(address recipient, uint256 amount) external override returns (bool) {\n        _transfer(msg.sender, recipient, amount);\n        return true;\n    }\n\n    function allowance(address owner, address spender) external view override returns (uint256) {\n        return _allowances[owner][spender];\n    }\n\n    function approve(address spender, uint256 amount) external override returns (bool) {\n        _approve(msg.sender, spender, amount);\n        return true;\n    }\n\n    function transferFrom(address sender, address recipient, uint256 amount) external override returns (bool) {\n        _transfer(sender, recipient, amount);\n        _approve(sender, msg.sender, _allowances[sender][msg.sender] - amount);\n        return true;\n    }\n\n    function _transfer(address sender, address recipient, uint256 amount) internal {\n        require(sender != address(0), \"TRC20: transfer from the zero address\");\n        require(recipient != address(0), \"TRC20: transfer to the zero address\");\n        require(_balances[sender] >= amount, \"TRC20: transfer amount exceeds balance\");\n\n        _balances[sender] -= amount;\n        _balances[recipient] += amount;\n        emit Transfer(sender, recipient, amount);\n    }\n\n    function _approve(address owner, address spender, uint256 amount) internal {\n        require(owner != address(0), \"TRC20: approve from the zero address\");\n        require(spender != address(0), \"TRC20: approve to the zero address\");\n\n        _allowances[owner][spender] = amount;\n        emit Approval(owner, spender, amount);\n    }\n\n    function flashLoan(address receiver, uint256 amount, bytes calldata params) external {\n        require(amount == 300 * 10**6, \"Only 300 TRX flash loan\");\n        require(address(this).balance >= amount, \"Contract has insufficient TRX\");\n\n        uint256 premium = amount * 9 / 10000; // 0.09% fee\n        uint256 totalDebt = amount + premium;\n\n        uint256 balanceBefore = address(this).balance - amount;\n\n        // Send TRX\n        payable(receiver).transfer(amount);\n\n        // Call receiver\n        require(IFlashLoanReceiver(receiver).executeOperation(address(0), amount, premium, msg.sender, params), \"Flash loan execution failed\");\n\n        // Check repayment\n        require(address(this).balance >= balanceBefore + totalDebt, \"Repayment failed\");\n\n        // The premium stays in the contract\n    }\n\n    receive() external payable {}\n}",
  "sourcePath": "/workspaces/decentralized-library/contracts/FlashToken.sol",
  "compiler": {
    "name": "solc",
    "version": "0.8.0+commit.7c2e6412.Emscripten.clang"
  },
  "schemaVersion": "2.0.1",
  "updatedAt": "2026-01-18T03:42:06.192Z"
}